{
  "_format": "hh-sol-artifact-1",
  "contractName": "BuyMeACoffee",
  "sourceName": "contracts/BuyMeACoffee.sol",
  "abi": [
    {
      "inputs": [],
      "stateMutability": "nonpayable",
      "type": "constructor"
    },
    {
      "anonymous": false,
      "inputs": [
        {
          "indexed": true,
          "internalType": "address",
          "name": "from",
          "type": "address"
        },
        {
          "indexed": false,
          "internalType": "uint256",
          "name": "timestamp",
          "type": "uint256"
        },
        {
          "indexed": false,
          "internalType": "string",
          "name": "name",
          "type": "string"
        },
        {
          "indexed": false,
          "internalType": "string",
          "name": "message",
          "type": "string"
        }
      ],
      "name": "NewMemo",
      "type": "event"
    },
    {
      "inputs": [
        {
          "internalType": "string",
          "name": "_name",
          "type": "string"
        },
        {
          "internalType": "string",
          "name": "_message",
          "type": "string"
        }
      ],
      "name": "buyCoffee",
      "outputs": [],
      "stateMutability": "payable",
      "type": "function"
    },
    {
      "inputs": [
        {
          "internalType": "address",
          "name": "newOwner",
          "type": "address"
        }
      ],
      "name": "changeOwner",
      "outputs": [],
      "stateMutability": "nonpayable",
      "type": "function"
    },
    {
      "inputs": [],
      "name": "getMemos",
      "outputs": [
        {
          "components": [
            {
              "internalType": "address",
              "name": "from",
              "type": "address"
            },
            {
              "internalType": "uint256",
              "name": "timestamp",
              "type": "uint256"
            },
            {
              "internalType": "string",
              "name": "name",
              "type": "string"
            },
            {
              "internalType": "string",
              "name": "message",
              "type": "string"
            }
          ],
          "internalType": "struct BuyMeACoffee.Memo[]",
          "name": "",
          "type": "tuple[]"
        }
      ],
      "stateMutability": "view",
      "type": "function"
    },
    {
      "inputs": [],
      "name": "withdrawTips",
      "outputs": [],
      "stateMutability": "nonpayable",
      "type": "function"
    }
  ],
  "bytecode": "0x608060405234801561001057600080fd5b5033600160006101000a81548173ffffffffffffffffffffffffffffffffffffffff021916908373ffffffffffffffffffffffffffffffffffffffff160217905550610f61806100616000396000f3fe60806040526004361061003f5760003560e01c8063204206e1146100445780633aaa74b214610060578063865c517214610077578063a6f9dae1146100a2575b600080fd5b61005e60048036038101906100599190610727565b6100cb565b005b34801561006c57600080fd5b50610075610245565b005b34801561008357600080fd5b5061008c6102a7565b60405161009991906109a4565b60405180910390f35b3480156100ae57600080fd5b506100c960048036038101906100c491906109f2565b61048a565b005b6000341161010e576040517f08c379a000000000000000000000000000000000000000000000000000000000815260040161010590610a7c565b60405180910390fd5b600060405180608001604052803373ffffffffffffffffffffffffffffffffffffffff16815260200142815260200184815260200183815250908060018154018082558091505060019003906000526020600020906004020160009091909190915060008201518160000160006101000a81548173ffffffffffffffffffffffffffffffffffffffff021916908373ffffffffffffffffffffffffffffffffffffffff1602179055506020820151816001015560408201518160020190816101d69190610ca8565b5060608201518160030190816101ec9190610ca8565b5050503373ffffffffffffffffffffffffffffffffffffffff167fc56140e05f516509ae28110e0f72e17558a7561630dad2647c3ae87d986e365c42848460405161023993929190610dc2565b60405180910390a25050565b600160009054906101000a900473ffffffffffffffffffffffffffffffffffffffff1673ffffffffffffffffffffffffffffffffffffffff166108fc479081150290604051600060405180830381858888f193505050506102a557600080fd5b565b60606000805480602002602001604051908101604052809291908181526020016000905b8282101561048157838290600052602060002090600402016040518060800160405290816000820160009054906101000a900473ffffffffffffffffffffffffffffffffffffffff1673ffffffffffffffffffffffffffffffffffffffff1673ffffffffffffffffffffffffffffffffffffffff1681526020016001820154815260200160028201805461035e90610acb565b80601f016020809104026020016040519081016040528092919081815260200182805461038a90610acb565b80156103d75780601f106103ac576101008083540402835291602001916103d7565b820191906000526020600020905b8154815290600101906020018083116103ba57829003601f168201915b505050505081526020016003820180546103f090610acb565b80601f016020809104026020016040519081016040528092919081815260200182805461041c90610acb565b80156104695780601f1061043e57610100808354040283529160200191610469565b820191906000526020600020905b81548152906001019060200180831161044c57829003601f168201915b505050505081525050815260200190600101906102cb565b50505050905090565b600160009054906101000a900473ffffffffffffffffffffffffffffffffffffffff1673ffffffffffffffffffffffffffffffffffffffff163373ffffffffffffffffffffffffffffffffffffffff161461051a576040517f08c379a000000000000000000000000000000000000000000000000000000000815260040161051190610e79565b60405180910390fd5b600073ffffffffffffffffffffffffffffffffffffffff168173ffffffffffffffffffffffffffffffffffffffff1603610589576040517f08c379a000000000000000000000000000000000000000000000000000000000815260040161058090610f0b565b60405180910390fd5b80600160006101000a81548173ffffffffffffffffffffffffffffffffffffffff021916908373ffffffffffffffffffffffffffffffffffffffff16021790555050565b6000604051905090565b600080fd5b600080fd5b600080fd5b600080fd5b6000601f19601f8301169050919050565b7f4e487b7100000000000000000000000000000000000000000000000000000000600052604160045260246000fd5b610634826105eb565b810181811067ffffffffffffffff82111715610653576106526105fc565b5b80604052505050565b60006106666105cd565b9050610672828261062b565b919050565b600067ffffffffffffffff821115610692576106916105fc565b5b61069b826105eb565b9050602081019050919050565b82818337600083830152505050565b60006106ca6106c584610677565b61065c565b9050828152602081018484840111156106e6576106e56105e6565b5b6106f18482856106a8565b509392505050565b600082601f83011261070e5761070d6105e1565b5b813561071e8482602086016106b7565b91505092915050565b6000806040838503121561073e5761073d6105d7565b5b600083013567ffffffffffffffff81111561075c5761075b6105dc565b5b610768858286016106f9565b925050602083013567ffffffffffffffff811115610789576107886105dc565b5b610795858286016106f9565b9150509250929050565b600081519050919050565b600082825260208201905092915050565b6000819050602082019050919050565b600073ffffffffffffffffffffffffffffffffffffffff82169050919050565b60006107f6826107cb565b9050919050565b610806816107eb565b82525050565b6000819050919050565b61081f8161080c565b82525050565b600081519050919050565b600082825260208201905092915050565b60005b8381101561085f578082015181840152602081019050610844565b60008484015250505050565b600061087682610825565b6108808185610830565b9350610890818560208601610841565b610899816105eb565b840191505092915050565b60006080830160008301516108bc60008601826107fd565b5060208301516108cf6020860182610816565b50604083015184820360408601526108e7828261086b565b91505060608301518482036060860152610901828261086b565b9150508091505092915050565b600061091a83836108a4565b905092915050565b6000602082019050919050565b600061093a8261079f565b61094481856107aa565b935083602082028501610956856107bb565b8060005b858110156109925784840389528151610973858261090e565b945061097e83610922565b925060208a0199505060018101905061095a565b50829750879550505050505092915050565b600060208201905081810360008301526109be818461092f565b905092915050565b6109cf816107eb565b81146109da57600080fd5b50565b6000813590506109ec816109c6565b92915050565b600060208284031215610a0857610a076105d7565b5b6000610a16848285016109dd565b91505092915050565b600082825260208201905092915050565b7f492063616e27742062757920636f666665652077697468203020455448000000600082015250565b6000610a66601d83610a1f565b9150610a7182610a30565b602082019050919050565b60006020820190508181036000830152610a9581610a59565b9050919050565b7f4e487b7100000000000000000000000000000000000000000000000000000000600052602260045260246000fd5b60006002820490506001821680610ae357607f821691505b602082108103610af657610af5610a9c565b5b50919050565b60008190508160005260206000209050919050565b60006020601f8301049050919050565b600082821b905092915050565b600060088302610b5e7fffffffffffffffffffffffffffffffffffffffffffffffffffffffffffffffff82610b21565b610b688683610b21565b95508019841693508086168417925050509392505050565b6000819050919050565b6000610ba5610ba0610b9b8461080c565b610b80565b61080c565b9050919050565b6000819050919050565b610bbf83610b8a565b610bd3610bcb82610bac565b848454610b2e565b825550505050565b600090565b610be8610bdb565b610bf3818484610bb6565b505050565b5b81811015610c1757610c0c600082610be0565b600181019050610bf9565b5050565b601f821115610c5c57610c2d81610afc565b610c3684610b11565b81016020851015610c45578190505b610c59610c5185610b11565b830182610bf8565b50505b505050565b600082821c905092915050565b6000610c7f60001984600802610c61565b1980831691505092915050565b6000610c988383610c6e565b9150826002028217905092915050565b610cb182610825565b67ffffffffffffffff811115610cca57610cc96105fc565b5b610cd48254610acb565b610cdf828285610c1b565b600060209050601f831160018114610d125760008415610d00578287015190505b610d0a8582610c8c565b865550610d72565b601f198416610d2086610afc565b60005b82811015610d4857848901518255600182019150602085019450602081019050610d23565b86831015610d655784890151610d61601f891682610c6e565b8355505b6001600288020188555050505b505050505050565b610d838161080c565b82525050565b6000610d9482610825565b610d9e8185610a1f565b9350610dae818560208601610841565b610db7816105eb565b840191505092915050565b6000606082019050610dd76000830186610d7a565b8181036020830152610de98185610d89565b90508181036040830152610dfd8184610d89565b9050949350505050565b7f4f6e6c7920746865206f776e65722063616e206368616e676520746865206f7760008201527f6e65720000000000000000000000000000000000000000000000000000000000602082015250565b6000610e63602383610a1f565b9150610e6e82610e07565b604082019050919050565b60006020820190508181036000830152610e9281610e56565b9050919050565b7f4e6577206f776e65722063616e6e6f7420626520746865207a65726f2061646460008201527f7265737300000000000000000000000000000000000000000000000000000000602082015250565b6000610ef5602483610a1f565b9150610f0082610e99565b604082019050919050565b60006020820190508181036000830152610f2481610ee8565b905091905056fea26469706673582212202dd6caffd4753f62d4827c62ae6458880060ed14595268a3aa026546f021898964736f6c63430008110033",
  "linkReferences": {},
  "deployedLinkReferences": {}
}